:100000000C94EE010C9416020C9416020C94160239
:100010000C9416020C9416020C9416020C94160200
:100020000C9416020C9416020C9416020C94761280
:100030000C9416020C9416020C9416020C941602E0
:100040000C94E1120C9416020C9416020C941602F5
:100050000C9416020C9416020C9416020C941602C0
:100060000C9416020C941602474F21004672616DE3
:10007000653A0003053F213F0A100A1208120E1CC0
:100080000E0C1E0C141A14161F161E131E1E1B1EF9
:100090001E1F1E3F213F3A2F3A173D173F213F18A1
:1000A0001F02040A041F0E04040E1F0A1F0A0E0E6C
:1000B0001F04110E2E252E2F2A2E262929021F025B
:1000C000081F08150E04040E150E15151B151B042C
:1000D0000604040C040000000017000300031F0ABC
:1000E0001F16371A1904130A153A000300000E11DF
:1000F000110E000A040A040E040030000404040077
:1001000010001804031F111F121F101D15171115C1
:100110001F07041F17151D1F151D01011F1F151F88
:1001200017151F000A00003200040A110A0A0A11FA
:100130000A040115020E11171E051E1F150A0E11C5
:100140000A1F110E1F15111F05010E111D1F041F7F
:10015000111F1108100F1F041B1F10101F061F1E58
:10016000040F0E110E1F09060E112E1F051A12156F
:1001700009011F011F101F0F180F1F0C1F1B041B4D
:10018000031C03191513001F11030418111F00028B
:1001900001022020200001020C121E1F120C0C1262
:1001A000120C121F0C1A14041E05242A1E1F021CF6
:1001B000141D1020201D1F0814111F101E041E1EC8
:1001C000021C0C120C3E0A040C123E1E04021416F1
:1001D0000A020F120E101E0E100E1E081E120C1216
:1001E00026281E322A26041E21001F00211E04017B
:1001F00002013F213F0A4E6F205344206361726425
:10020000206F720A6E6F204C4F414445522E484574
:10021000580A0A153A45786974001D20466C6173C6
:1002200068696E670A20206C6F616465722E2E2EDD
:100230000A0A444F4E2754205455524E204F4646EA
:1002400021004E4F20424154544552590A0A504C05
:10025000454153450A5455524E204F4646001773A8
:1002600061766500166261636B00157479706500D4
:100270000A0A0A153A6F6B617920163A6564697447
:1002800000596F7520656E74657265640A00540AC2
:1002900003E181867F3E186D830F0F0E0183866018
:1002A00033186DC3198F1803C38E6033186DE33094
:1002B000CF1803C39E603630CDE360CF3006C79EB3
:1002C0007E3E30CDB360CF300CC6F6603330D9B649
:1002D00060CF33CFCCF66061B0DB1E60CF30D86C1E
:1002E000E6C061B0DB1E618F19986CC6C063B19B1C
:1002F0000E330F0FB078C6FF7E1F1B061E0F17535D
:100300004400161378001613140015102000152051
:10031000100000000500893008023802497868148E
:100320000000450068010000050068013801000078
:100330000500380168010000F6E8DBCFC3B8AEA4C1
:100340009B928A827B746E68625C57524E4945412B
:100350003E3A3734312E2C29272523211F1D1C1A04
:100360001917161514131211100F0E0D0C0B0A0984
:1003700008070677037B030101F7030101FF030070
:10038000000000240027002A0000000000250028AB
:10039000002B0000000000230026002900040404B4
:1003A000040404040402020202020203030303031E
:1003B00003010204081020408001020408102001FB
:1003C00002040810200000000700020100000304DE
:1003D00006000000000000000000920311241FBE70
:1003E000CFEFD8E0DEBFCDBF11E0A0E0B1E0ECE49C
:1003F000F2E302C005900D92AA31B107D9F714E0DB
:10040000AAE1B1E001C01D92A232B107E1F713E009
:10041000CCEDD3E004C02297FE010E948818CA3DAB
:10042000D107C9F70E940F150C9424190C940000F1
:10043000FC01B49660E070E04081518124813581F7
:1004400088279927821B930B481759072CF42C5A9D
:100450003F4F3183208306C086819781481B590B0B
:10046000518340836F5F7F4F38966430710521F769
:100470000895CF93DF93FC01DC01AC5BBF4F44E5F3
:1004800050E0EC01C45BDF4F2D913C9111971216A7
:10049000130644F488819981281B390B11963C93EB
:1004A0002E9303C011965C934E931296AC17BD0722
:1004B00059F7EE5AFF4F8D919C9120813181820F27
:1004C000931F91838083DF91CF9108958F929F92A4
:1004D000AF92BF92CF92DF92EF92FF920F931F9352
:1004E000DF93CF93CDB7DEB728970FB6F894DEBF72
:1004F0000FBECDBF6C01FC0180E090E025E030E054
:1005000011821082338322830496349684329105BB
:10051000B9F7F601B49680E090E011821082138260
:1005200012821582148217821682089638968032BB
:10053000910599F78CE490E0C80ED91E81E090E017
:10054000D6018D939D9384E190E0FD018193919379
:10055000DF011D921D926D011D921C92EEEAFFEFCC
:10056000CE0EDF1EF601EC5BFF4F80E090E0819342
:100570009193459684359105D1F71A82198281E0CD
:1005800090E09C838B8382E090E09E838D8383E068
:1005900090E098878F83AA24BB244E010894811C85
:1005A000911C60E070E080E090E024E030E040E00A
:1005B00050E00E94B4167B018C0160E070E080E0A6
:1005C00090E024E030E040E050E00E94B416DC010E
:1005D000CB01EE0CFF1CE80CF91CD7014D915C918E
:1005E0001197880F991F880D991DFC012081318179
:1005F0002D933C93518340830894A11CB11CF4E0DB
:10060000AF16B10471F67401F601B49600E010E083
:1006100095E1892E912C89E0A82EB12CAC0EBD1E3F
:10062000D7018D919D917D019C01220F331F2D5F7C
:100630003F4F35832483289DA001299D500D389D6F
:10064000500D112451834083200F311F33832283A7
:1006500063E070E00E94361801969783868338968F
:100660000D5F1F4FEA14FB04D9F667E070E080E0ED
:1006700090E029E030E040E050E00E94B416F6013E
:10068000E05BFF4F71836083A4E5EA2EF12C00E06C
:1006900010E05F012EC065E070E080E090E02FE0A8
:1006A00030E040E050E00E94B4169B01AC01E2E073
:1006B000220F331F441F551FEA95D1F7260F371F0E
:1006C000481F591FE20EF31E60E070E080E090E0EA
:1006D00025E030E040E050E00E94B416F60173835C
:1006E0006283F182E0820F5F1F4F84E090E0C80ECA
:1006F000D91ED5018D919C910817190764F228968F
:100700000FB6F894DEBF0FBECDBFCF91DF911F9122
:100710000F91FF90EF90DF90CF90BF90AF909F90A0
:100720008F900895EAE1F1E086E8DF011D928A9555
:10073000E9F710926B0110926A0186E191E09093C3
:100740006901809368011092A1011092A00110929A
:10075000A3011092A20122E030E03093A501209382
:10076000A4011092A7011092A6013093A901209331
:10077000A8013093AB012093AA011092AD01109211
:10078000AC013093AF012093AE0166E070E070934E
:10079000B1016093B00148E050E05093B301409341
:1007A000B2013093B5012093B4018AE090E09093B8
:1007B000B7018093B6013093B9012093B8015093EB
:1007C000BB014093BA011092BD011092BC0110927E
:1007D000BF011092BE017093C1016093C00182E11C
:1007E00090E09093C3018093C2011092C5011092D2
:1007F000C4011092C60187EC91E00E946602089540
:100800000F931F93DF93CF93CDB7DEB7C455D0407E
:100810000FB6F894DEBF0FBECDBF86EF9FEF90936B
:10082000A1018093A0018DE290E09093A3018093B9
:10083000A2018E010F5F1F4FC8010E946602A7EC44
:10084000B1E0F80184E501900D928150E1F7CC5AB6
:10085000DF4F0FB6F894DEBF0FBECDBFCF91DF9153
:100860001F910F9108950F931F93CF93DF93EC0186
:100870000DE210E08AA19BA1081B190B8EA1882311
:1008800079F4888199818F30910524F401969983B8
:10089000888306C08FE090E09983888381E08EA3EF
:1008A0008A819B810817190714F41B830A838A81A4
:1008B0009B818017910789F41DA21CA28EA1882319
:1008C00061F084E291E061E041E00E948F078823BB
:1008D00021F088E090E09DA38CA32CA13DA11216ED
:1008E000130654F48A819B81821B930B9B838A831A
:1008F000225030403DA32CA38A819B818017910711
:1009000019F002969B838A83DF91CF911F910F91FB
:10091000089580EA91E00E94330487EC91E00E9400
:1009200018028091C601882321F087EC91E00E9493
:10093000390208950F93FC0120813181261B370B6A
:10094000C90109968836910560F4828193810397E5
:1009500041F488E691E0622F46E228E008E00E9438
:10096000A7080F9108950F93FC0188E691E060813C
:100970004281248106810E94A7080F9108950F9358
:100980001F93DF93CF93CDB7DEB768970FB6F89478
:10099000DEBF0FBECDBFFC010081118144815581B6
:1009A000400F511FA281B381268137812A0F3B1F3F
:1009B000608571858285938598878F837E836D831B
:1009C0003C832B835A83498344855585400F511FAF
:1009D000268537852A0F3B1F608971898289938913
:1009E000988B8F877E876D873C872B875A874987AF
:1009F00084899589080F191F86899789A80FB91FBF
:100A0000208D318D828D938D988F8F8B3E8B2D8B8A
:100A1000BC8BAB8B1A8B098BCE0101960E94B30461
:100A2000CE0109960E94B304CE0141960E94B30400
:100A300068960FB6F894DEBF0FBECDBFCF91DF91A1
:100A40001F910F9108953F924F925F926F927F9204
:100A50008F929F92AF92BF92CF92DF92EF92FF92CE
:100A60000F931F93CF93DF938C0188E691E06CE6A0
:100A700070E00E9448150E5A1F4FF8016081718185
:100A80000255104088E691E04AE050E00E9433169B
:100A900088E691E060E04AE224E50E94930888E657
:100AA00091E060E04EE224E50E94930824E4C22E27
:100AB000D12CC00ED11EEE24FF24F601B080C1E07F
:100AC000D0E04C2F6C2F6B0D465D88E691E00E94C4
:100AD000DD072196C430D105A1F70894E11CF11C73
:100AE00082E090E0C80ED91E94E0E916F10429F7DF
:100AF000E801A496EE24FF242C813D8121153105C7
:100B000031F088E691E068814A810E94DD0808940E
:100B1000E11CF11C2896E4E0EE16F10469F78091DF
:100B2000C6018823C9F0E801C25BDF4F8881998143
:100B3000181619068CF485E0809371018093720178
:100B400088E691E068E670E00E9448158881998106
:100B500001979983888396C0025B1F4FF8018081BB
:100B600091810E541040181619060CF48BC00E5AC1
:100B70001F4FF80180809180025510405801EE24EB
:100B8000E394CC24DD2490E5692E712C600E711E57
:100B90008FE0382EB6E14B2EA6E25A2E5FC0C6017A
:100BA000880F991F880F991F800F911FB4010E9411
:100BB0009A04F5018281938182309105B9F08330E6
:100BC00091052CF4009749F0019751F40CC0833043
:100BD0009105E9F1049721F40CC0E7E6FE2E0BC065
:100BE00070E2F72E08C065E7F62E05C054E6F52E34
:100BF00002C04BE6F42EF501C081D181C819D90994
:100C0000CE0109968836910510F5C0937101309296
:100C1000720188E691E0B6014AE050E00E94331686
:100C2000C093710140927201F5016081718188E683
:100C300091E04AE050E00E943316C0937101509257
:100C4000720188E691E06F2D0E946B15EE240894E6
:100C5000C11CD11C84E090E0A80EB91EF301808174
:100C60009181C816D9060CF49ACFEE2059F08FE086
:100C7000809371018093720188E691E060E071E0F9
:100C80000E944616DF91CF911F910F91FF90EF9038
:100C9000DF90CF90BF90AF909F908F907F906F909C
:100CA0005F904F903F90089587EC91E00E9423055C
:100CB00080EA91E00E94BF0408950E9489040E9486
:100CC0005406089580910F01882329F00E940004A2
:100CD00010920F0108958AE191E00E94050F882388
:100CE00011F00E945D0608950F931F930AE111E031
:100CF000C8010E94BE0F10923201C80164E10E9437
:100D0000820D80E090E00E94D2161F910F9108950D
:100D1000882319F48CB5806202C08CB58F7D8CBDA0
:100D200008959CB5937F982B9CBD08952CB5382FC2
:100D300033702C7F322B3CBD2DB590E09595879577
:100D40009595879581702E7F822B8DBD08958AE0C1
:100D500061E00E94AC148AE061E00E9440148CB50E
:100D600080618CBD8CB580648CBD8DE061E00E949B
:100D700040148BE061E00E9440140895FC0181E082
:100D80008083089585E070E00E94E01308956F92DB
:100D90007F928F929F92AF92BF92CF92DF92EF920B
:100DA000FF920F931F93CF93DF93EC0189819A8178
:100DB0008C0124E0000F111F2A95E1F7081B190B85
:100DC00085E10E94BE13BC01600F711F84E076951F
:100DD00067958A95E1F77A8369838881882381F111
:100DE0002E813F816217730710F4B90106C0888510
:100DF00099858617970708F4BC0100D000D080E0E1
:100E000090E040E050E0E884F98400E010E0AD803C
:100E1000BB24CC24DD246C80772488249924EDB76E
:100E2000FEB761827282838294820E9449166B832C
:100E30000F900F900F900F9085E070E00E94E013EC
:100E4000DF91CF911F910F91FF90EF90DF90CF90A6
:100E5000BF90AF909F908F907F906F900895FC010E
:100E60008CE39FE09383828384E0818381E08487A5
:100E70000895CF93DF93EC018C8590E08F71907093
:100E8000892B69F584E10E94BE13AA2797FDA095DE
:100E9000BA2FBC01CD010E94081726EE3FE34EECAD
:100EA00050E40E9494170E94DA169B01AC017B83E8
:100EB0006A836115710589F084E08983B901FE01B7
:100EC00020E0848195816817790710F429830AC08E
:100ED0002F5F32962430A9F702C08FEF89838C856B
:100EE0008F5F8C87DF91CF910895FC0188E080832C
:100EF00089E0818387E0828386E0838384E0848342
:100F000082E0858381E18683089520E0FC01E60F7D
:100F1000F11D8781813009F421E0822F0895E62FA9
:100F2000F0E0423040F420E0E80FF91F8781815063
:100F30008E3F88F40FC0E80FF91F87818F3F11F4AF
:100F400020E009C020E090E0642F70E00E942218A9
:100F5000019709F421E0822F08950F931F93CF93F7
:100F6000DF93EC0110E00FEF888162E00E944014F3
:100F700088810E94DF142F81892B19F42F5F2F8322
:100F800007C0222349F02F3F11F41F8201C00F83B5
:100F9000888160E00E9440141F5F2196173021F77E
:100FA000DF91CF911F910F910895FC01678F60A38E
:100FB0000895FC01678F40A30895FC016435A8F5EE
:100FC00047FD33C040338CF5878D942F95959595CB
:100FD0009595772767FD70954770882399F0E4E52C
:100FE0009E02F0011124E60FF71FE55EFD4F81E040
:100FF00090E002C0880F991F4A95E2F72081282BC4
:1010000020830895E4E59E02F0011124E60FF71F06
:10101000E55EFD4F81E090E002C0880F991F4A9580
:10102000E2F780952081282320830895AF92BF9214
:10103000CF92DF92EF92FF920F931F93CF93DF93A4
:10104000EC01162FF42EE22EAA24402F552747FD3F
:1010500050958F2D992787FD9095481B590B57FF69
:1010600003C0509541955F4F2E2D332727FD3095B6
:10107000812F992787FD9095281B390B37FF03C0D7
:10108000309521953F4F2417350744F4AA24A394A3
:101090008F2DF12E182F802F0E2DE82EE11634F40F
:1010A0008E2DE12E182F802F0F2DF82EDE2CD11A29
:1010B000202F332727FD30958F2D992787FD909579
:1010C000281B390B37FF03C0309521953F4FB22EB7
:1010D000F0161CF0CC24CA9402C0CC24C3948D2DED
:1010E000D7FC8F5F082F059511C0AA2021F0CE01F3
:1010F0006F2D412F03C0CE01612F4F2D0E94DD07C0
:101100000B1907FF02C0FC0C0D0D1F5FE1166CF7F9
:10111000DF91CF911F910F91FF90EF90DF90CF90D3
:10112000BF90AF9008950F93042F322F262F215098
:10113000230F0E9416080F9108950F93362F042F46
:101140000150020F232F0E9416080F9108959F92BD
:10115000AF92BF92CF92DF92EF92FF920F931F93C5
:10116000CF93DF936C01B62E942EA02EC0E0D0E07A
:10117000E62EFF24E7FCF094022F112707FD1095BF
:101180000E0D1F1D06C0C601492D2A2D0E949D0867
:1011900021966B2D6C0FCE018E0D9F1D8017910730
:1011A00094F3DF91CF911F910F91FF90EF90DF901B
:1011B000CF90BF90AF909F9008958F929F92AF92E3
:1011C000BF92CF92DF92EF92FF920F931F93CF9334
:1011D000DF93EC01B62EC42E122FAA24A394A21AD8
:1011E0008EEF289F802C1124422F4C0DCE010E949F
:1011F000DD074C2D411BCE016B2D0E94DD07612FB9
:101200006B0DCE014C2D0E94DD076B2D611BCE01B5
:101210004C2D0E94DD07D12EEE2483E0982E42C093
:10122000A7FC04C0DA9482E0880EA80CE394A90C11
:10123000FE2CFB0C1D2D1C0DCE016F2D412F0E948D
:10124000DD070B2D0E19CE01602F412F0E94DD0707
:101250001C2D1D19CE016F2D412F0E94DD07CE01DF
:10126000602F412F0E94DD07FD2CFB0C1E2D1C0D55
:10127000CE016F2D412F0E94DD070B2D0D19CE01E0
:10128000602F412F0E94DD071C2D1E19CE016F2DEE
:10129000412F0E94DD07CE01602F412F0E94DD0704
:1012A00082E0980EED140CF4BBCFDF91CF911F912B
:1012B0000F91FF90EF90DF90CF90BF90AF909F90F5
:1012C0008F9008952F923F925F926F927F928F92AC
:1012D0009F92AF92BF92CF92DF92EF92FF920F93C5
:1012E0001F93DF93CF9300D000D000D0CDB7DEB7EF
:1012F0009E838D83C62ED42EEE24E394E21A8EEFC5
:10130000289F502C1124842E8A94962E9A94A42ED1
:10131000A394B62EB394F22E662423E0722E10E02E
:10132000C801847090709A838983F801E270F0702C
:10133000FC83EB8398E0292E312C2022312201708E
:10134000107054C0E7FC04C0FA94F2E05F0EE50CA4
:10135000639489819A81892B71F04F2D4D0D8D8178
:101360009E816B2D0E94DD076F2D6C0D8D819E81FE
:101370004A2D0E94DD07EB81FC81EF2B71F04D2D92
:101380004F198D819E816B2D0E94DD076F2D6C0D95
:101390008D819E81482D0E94DD072114310471F05A
:1013A0006C2D6F198D819E814A2D0E94DD074F2D76
:1013B0004D0D8D819E81692D0E94DD07011511055E
:1013C00071F06C2D6F198D819E81482D0E94DD0773
:1013D0004D2D4F198D819E81692D0E94DD07E70CEF
:1013E000F2E07F0E8A949A94A394B3946F140CF451
:1013F000A9CF26960FB6F894DEBF0FBECDBFCF9112
:10140000DF911F910F91FF90EF90DF90CF90BF90F1
:10141000AF909F908F907F906F905F903F902F90B4
:1014200008954F925F926F927F928F929F92AF92A8
:10143000BF92CF92DF92EF92FF920F931F93CF93C1
:10144000DF93EC01A62E742E9E2DFF24F394F21A46
:101450008EEF289F802C1124B42EBA9453E0C52E11
:10146000CE0CE22EDD2443E0942E10E031E0432E3A
:10147000512C40225122692E63940270107034C0A6
:10148000F7FC04C0EA9482E0880EF80CD39441146F
:10149000510489F06D2D6A0D472D4E192E2D220F06
:1014A000260DCE010E949D086E2D6A0DCE014B2D9A
:1014B0002C2D0E949D080115110589F06A2D6D19CA
:1014C000472D4E192E2D220F260DCE010E949D086C
:1014D0006A2D6E19CE014B2D2C2D0E949D08F90C02
:1014E00082E0980EBA94C80EDE1454F2DF91CF91C8
:1014F0001F910F91FF90EF90DF90CF90BF90AF9032
:101500009F908F907F906F905F904F9008957F9203
:101510008F929F92AF92BF92CF92DF92EF92FF9203
:101520000F931F936C01962EA42EF22E7E2C760E16
:101530001EEFE19E102D1124812E820E672D282D85
:101540000E949308B02EBA0CBA94C601672D4B2D99
:10155000282D0E949308AE0C100FC601692D4A2D4C
:10156000212F0E949D08F90CFA94C6016F2D4A2D77
:10157000212F0E949D08C601672D4A2D2E2D01E0C6
:101580000E946209FE18C6016F2D4A2D2E2D02E021
:101590000E946209BE18C6016F2D4B2D2E2D04E04E
:1015A0000E946209C601672D4B2D2E2D08E00E9476
:1015B00062091F910F91FF90EF90DF90CF90BF9045
:1015C000AF909F908F907F9008958F929F92AF924F
:1015D000BF92CF92DF92EF92FF920F931F936C0115
:1015E000162FA42E922EF02EBE2C8E2C860E2EEFB1
:1015F000E29EE02C11242E2D290D682D0E94A708B3
:10160000AB0CFA94FE0C1150190D1B19C601612F79
:101610004A2D2B2D01E0EF2C0E94110AC601682DE6
:101620004A2D2B2D02E00E94110A1F910F91FF906D
:10163000EF90DF90CF90BF90AF909F908F900895E4
:10164000DC01FB0184918F5F14968C931497319683
:1016500084918F5F15968C93159731965E96FC93C7
:10166000EE935D9708953F924F925F926F927F92B3
:101670008F929F92AF92BF92CF92DF92EF92FF92A2
:101680000F931F93CF93DF93EC01862EA42E422F4E
:10169000102F3F8C23E526170CF4ABC03FE23A1520
:1016A0000CF4A7C0C02EDD248C8190E001979C0132
:1016B000C29EC001C39E900DD29E900D1124262F74
:1016C000332727FD3095820F931F181619060CF04B
:1016D00090C08D8190E09C01C29EC001C39E900D80
:1016E000D29E900D11242A2D332727FD3095820F8D
:1016F000931F181619060CF07CC09924442E55240B
:101700006DC09C01215030404217530711F460E036
:101710000EC0429EC001439E900D529E900D11241A
:10172000840F951FED8DFE8DE80FF91F64914C9D80
:10173000C0014D9D900D5C9D900D1124682C680E8C
:10174000BB24792C780C3FC0E62EFF2460FF19C023
:10175000113039F44B2D4A0DCE01672D0E94DD0763
:101760002EC02C9DC0012D9D900D3C9D900D1124EF
:101770004A2D480FCE01662D212F012F0E94A70868
:101780001EC098A18F8D9817D1F09F8F113039F41A
:101790004B2D4A0DCE01672D0E94DD070FC02C9DF9
:1017A000C0012D9D900D3C9D900D11244A2D480F98
:1017B000CE01662D212F012F0E94A7083F8EF594A0
:1017C000E7946E2DB3942B2D332727FD30958D8113
:1017D00090E0281739070CF4B7CF9394492D55277B
:1017E00047FD50958C8190E0481759070CF489CF3C
:1017F0003F8EDF91CF911F910F91FF90EF90DF907F
:10180000CF90BF90AF909F908F907F906F905F90A0
:101810004F903F9008950F93CF93DF93EC01262FC5
:101820006A3049F48D819885899F802D11249A858D
:10183000980F9A8726C06D3029F169854A850885F9
:101840000E94330B9C816885969F402D11248985C9
:10185000480F49878F818823A9F0552747FD509568
:10186000699F9001112484E590E0821B930B8417FB
:10187000950744F49D81699F902D11248A85890FD5
:101880008A87198681E090E0DF91CF910F910895CA
:101890001F93CF93DF93EC01162FF8948E8560E0B1
:1018A0000E94AC148F8518161CF460E00E94AC14E2
:1018B0001EBD0DB407FEFDCF8EB58F8518161CF426
:1018C00061E00E94AC147894DF91CF911F9108954C
:1018D000FF920F931F93CF93DF93EC01FF2400E05F
:1018E00010E06F2D6064CE010E94480CCE0160E8CC
:1018F0000E94480C8E8561E00E94AC148F851816FA
:101900001CF460E00E94AC14F801E55EFD4F90E02D
:1019100080818EBD0DB407FEFDCF8EB59F5F3196E1
:101920009435B1F78F8518161CF461E00E94AC1451
:10193000F3940C5A1F4F86E0F81699F6CE0160E436
:101940000E94480CDF91CF911F910F91FF90089555
:10195000CF93DF93DC0188EF91E0EBE1F2E0EF0160
:101960009C01199221503040E1F719961C92199769
:101970001A961C92DF91CF910895EF920F93CF9317
:10198000DF93EC014D876C872E87E88A0F8781E013
:1019900088878F8F18A28F83CE0163E770E00E9443
:1019A000200B0E94A70681E00E94880685E00E9425
:1019B00096068CE00E9491068D8561E00E9440149D
:1019C0008C8561E00E9440148E8561E00E94401485
:1019D000888918161CF461E00E9440148F8518163F
:1019E0001CF461E00E944014888918166CF460E0D1
:1019F0000E94AC146AE070E080E090E00E945D1309
:101A0000888961E00E94AC14EC852E2F332727FDD6
:101A10003095F901E356FC4FE491F0E0EE0FFF1F23
:101A2000E757FC4F859194919C8B8B8B2F543C4FA7
:101A3000F90184918A8FED852E2F332727FD30956C
:101A4000F901E356FC4FE491F0E0EE0FFF1FE7577A
:101A5000FC4F859194919A8B898B2F543C4FF901BF
:101A60008491898FEF852E2F332727FD3095F9013B
:101A7000E356FC4FE491F0E0EE0FFF1FE757FC4FF9
:101A8000859194919E8B8D8B2F543C4FF9018491BD
:101A90008B8FEE852E2F332727FD3095F901E356E6
:101AA000FC4FE491F0E0EE0FFF1FE757FC4F8591EC
:101AB0009491988F8F8B2F543C4FF90184918C8F88
:101AC000CE0161E20E94480CCE0164E10E94480C04
:101AD0008B8587FF02C08FE78B876B856068CE019F
:101AE0000E94480CCE0160E20E94480CCE016CE0DE
:101AF0000E94480CCE010E94680CDF91CF910F919B
:101B0000EF900895FC01262FE258FF4F88EE93E0F6
:101B100070E00E9436186083EE57F040822F64E137
:101B20000E94161881A70895CF93DF93DC01E0E8A7
:101B3000FFE685919491ED01C75ADF4FAD01415900
:101B40005F4F8150904C09F04EC0E6E9FFE6E4910A
:101B5000E883E7E9FFE6E4911496EC931497E8E94B
:101B6000FFE6E4911596EC931597E9E9FFE6859178
:101B7000949117969C938E931697EBE9FFE68591C7
:101B8000949119969C938E931897EDE9FFE6E49152
:101B90009B96EC939B97EEE9FFE6E4919A96EC9383
:101BA0009A97EFE9FFE6E491EA01E883E0EAFFE6CD
:101BB000859194915D969C938E935C97E2EAFFE603
:101BC000859194915F969C938E935E97E4EAFFE6ED
:101BD0008591949191969C938E939097E6EAFFE677
:101BE0008591949132C08CE3888314961C9214974B
:101BF0002FEF15962C93159780E293E017969C9300
:101C00008E93169784ED93E019969C938E93189774
:101C100081E09B968C939B979A968C939A97FA0166
:101C200020838CEA9DE05D969C938E935C978EED6D
:101C30009DE05F969C938E935E9784E79EE09196DD
:101C40009C938E9390978CE39FE093969C938E93B6
:101C50009297DF91CF9108950F931F93CF93DF93C6
:101C6000EC018C01025B1F4FC80161E040E00E9463
:101C7000D907FE01E95AFF4FCE5ADF4F85E598811B
:101C8000891B808326961882C855D040698D6130A3
:101C900081F1613028F0888D653008F043C03DC087
:101CA000CE0185960E948F10CE0160E00E94C20690
:101CB000C8010E94A80CCA5ADF4F81E08883C8017E
:101CC00062E472E00E944815C8010E94680C83B764
:101CD000817F846083BF83B7816083BF83B7816066
:101CE00083BF889583B78E7F83BF83B78E7F83BF83
:101CF0001FC0C059DF4F88819981AA81BB818F7035
:101D00009070A070B0700897A105B10518F4C801D3
:101D100067E00CC0C80168E709C0882349F06B5F21
:101D2000C80104C0882321F0C8016FE20E946B152E
:101D3000DF91CF911F910F910895AF92BF92CF92F3
:101D4000DF92EF92FF920F931F93CF93DF93EC01FB
:101D5000CB57DF4F8881C558D040882309F44AC04B
:101D60008C3010F010E002C01CE0181BCA5ADF4F84
:101D700081E08883C655D0406EE4C62ED12CCC0EAF
:101D8000DD1EC60160E00E94D50753E5A52EB12CEB
:101D9000AC0EBD1EF50100814DE2F42E4F2D401B0F
:101DA000410F0D5FC60160E024E533E0E32E0E94A1
:101DB000E50AC60161E00E94D507F5010081F01A2D
:101DC000F10E0D5FC60160E04F2D24E50E94870AE9
:101DD000C95ADF4F84E08993F5018081181B115D9A
:101DE0001883AB9669917991C6010E944815888144
:101DF00081508883DF91CF911F910F91FF90EF90D9
:101E0000DF90CF90BF90AF900895AF92BF92CF92E6
:101E1000DF92EF92FF920F931F93CF93DF93EC012A
:101E2000EFE7AE2EB12CA80EB91EF501E080F180CF
:101E3000028113810E942913E61AF70A080B190B75
:101E40007EE7C72ED12CCC0EDD1EF601808190E0FE
:101E5000A0E0B0E08E159F05A007B10708F081C093
:101E60008E0106581F4FF80180819181A281B381B4
:101E70000097A105B10509F474C00E942913F60169
:101E80002081620F711D811D911DF5016083718399
:101E900082839383FE01E059FF4F80819181A2816B
:101EA000B3810196A11DB11D80839183A283B38369
:101EB000F80110821182128213820E943713CA58CD
:101EC000DF4F688379838A839B83C657D040CE01D6
:101ED0000E94C706CE010A960E94AD07CE01489621
:101EE0000E94390781E032C08E010B5D1F4FC8018F
:101EF0000E94DD10C8010E945A11C8010E943D12C3
:101F0000CE010E949D0ECE010E942C0E8E01025B1E
:101F10001F4FC8010E94680CCC5ADF4F8881C455FE
:101F2000D040882319F4C8010E94A80C0E943713DE
:101F3000C658DF4F688379838A839B8324972881DF
:101F40003981621B730B7A936A9380E0DF91CF91A2
:101F50001F910F91FF90EF90DF90CF90BF90AF90C7
:101F60000895C658DF4F88819981AA81BB81CA57DD
:101F7000D0400097A105B10541F7B6CFAF92BF920F
:101F8000CF92DF92EF920F93CF93DF936C018EE7A6
:101F900090E0C80ED91E82E3F601808381E090E0D4
:101FA000A0E0B0E0B293A293929382936F0185EF89
:101FB0009FEFC80ED91E8FEFF601808381E99FEF56
:101FC000C80ED91EC6010E94940DC6010E94BE060D
:101FD000C6016FEF0E94C2064AE0A42EB12CAC0CE1
:101FE000BD1CC5010E947507C5010E94AD07C60151
:101FF00048960E942F07C601825B9F4F6DE04BE021
:1020000020E10FE03EE0E32E0E94BD0CE601A59624
:10201000CE010E94A712C50165E00E9485078823B2
:1020200029F0CE0160E00E949A1206C0CE0164E160
:1020300073E040E00E949310DF91CF910F91EF90F9
:10204000DF90CF90BF90AF9008950F93DC010023F5
:1020500009F047C06230A1F1633030F4662351F0DB
:10206000613009F03EC009C0633081F1643009F08D
:1020700038C032C056964C9334C0842F90E0880FFD
:10208000991F1F962D913C915097280F391FF901E8
:102090008591949190969C938E935F97FC014591C6
:1020A0005491642F91964C939197252F3327842F29
:1020B00090E02817390708F4652F92966C9311C0A9
:1020C00059964C9359975A962C930BC05B964C9308
:1020D0005B975C962C9305C05D964C935D975E96DE
:1020E0002C930F910895FC01662369F4178A158AD1
:1020F00014A213A2108E10921704109216041092BC
:1021000014041092B4000895CF93DF93EC0166237A
:1021100019F40E9473101982DF91CF91089560E045
:102120000E94841008950F931F93CF93DF93EC01C7
:102130008B01442371F460E00E9484101E870D8798
:102140001B8A1A8A81E0898389E08E8B198E1B8E07
:102150001D8EDF91CF911F910F910895CF93DF9343
:10216000EC01662339F58881882321F18981882350
:1021700009F5898590E0880F991FEF81F885E80FB0
:10218000F91F859194912FEF8F3F920711F41882D8
:1021900011C09C8790E0880F991FEA85FB85E80FA6
:1021A000F91F65917491CE0140E00E9493108985DA
:1021B0008F5F8987DF91CF91089560E00E94AE1014
:1021C00008950F93CF93DF93EC01662309F06EC05F
:1021D0008981882309F46AC08D89882309F066C043
:1021E000EA89FB89EE0FFF1F4D855E85E40FF51F21
:1021F000259134912115310509F040C0898981303C
:1022000031F41B8A1A8AFA012591349137C0198258
:102210008881882379F0CE0160E00E94AE108A891F
:102220009B89880F991FED85FE85E80FF91F259181
:10223000349124C0CE0160E00E94731037C0E6E004
:1022400036952795EA95E1F76F70422F4F7175E04B
:10225000369527957A95E1F72051CE0100E00E944E
:1022600025108A899B8901969B8B8A8B880F991FE1
:10227000ED85FE85E80FF91F25913491B90176951A
:1022800067957695679520FDDACF862F8F738C8BB7
:102290003D8B1DA21CA21BA281E08F8B8093140496
:1022A000188E8A899B8901969B8B8A8BDF91CF91AF
:1022B0000F91089560E00E94E1100895CF93DF939D
:1022C000EC01662309F0D6C08F89882309F4D2C0B7
:1022D0008D89882321F4CE010E947310CBC08150D8
:1022E0008D8B8DA1882309F03BC08BA19CA1019609
:1022F000880F991FEF8DF8A1E80FF91F8591949130
:10230000282F27702EA3AC0163E0569547956A9558
:10231000E1F79A0136952795892F99278695869515
:102320008FA32F738C81289F202D11242DA3417002
:10233000409318048BA19CA101969CA38BA329A177
:1023400030E08217930760F08AA1882329F0281BC8
:1023500031093CA32BA304C0CE0160E00E9473109E
:102360008DA181508DA3988D9F5F988F2FA18C890F
:10237000280F8C85280F2A836B8D662369F0892F9F
:10238000992787FD909570E00E9436188C8D869F66
:10239000802D1124820F8A838A8190E0CB966BE393
:1023A00070E00E9436188A832E892B83698D6623FC
:1023B00079F0888D772767FD7095992787FD90952F
:1023C0000E9436188A8D869F802D1124820F8B8360
:1023D0006D8D662399F0888D992787FD909570E023
:1023E0000E943618CB0162E070E00E9436189E8D84
:1023F000899F802D11249B81890F8B838B818A304B
:102400000CF089E087FD80E08B838C898F3309F4A1
:102410001B82F894EA81F0E0E85CFC4FE491E093E1
:1024200015042D8130E08B81992787FD9095A901B6
:10243000489F9001499F300D589F300D112488A569
:1024400090E0A901489F9001499F300D589F300DA1
:1024500011248EA1992787FD9095AC01249FC0017E
:10246000259F900D349F900D112480931604809326
:1024700017047894DF91CF91089560E00E945E1177
:10248000089560911604662381F1809113048F5F93
:102490008093130490911504891738F130E08091EE
:1024A0001404882309F431E03093140410921304C7
:1024B000809118048823A9F08091100123E4829F61
:1024C000C0011124895B8093100190E070E00E94AC
:1024D00022188093170405C0809117048093B400DC
:1024E00008953323C9F780E0F9CF08951F920F9222
:1024F0000FB60F9211242F933F934F935F936F93D7
:102500007F938F939F93AF93BF93EF93FF930E941B
:102510004112FF91EF91BF91AF919F918F917F9168
:102520006F915F914F913F912F910F900FBE0F9040
:102530001F901895FC01862F668170E06F5F7F4FBA
:10254000992787FD90950E943618858308950F93EB
:10255000FC0181E0848384E080A783E793E0908B93
:102560008787CF0161E040E020E000E00E94251075
:1025700083E061E070E00E94E013E1EBF0E0808135
:10258000887F81608083F89410928000E1E8F0E019
:102590001082109285001092840088E191E090935F
:1025A0008900809388008081886080838081816039
:1025B0008083EFE6F0E080818260808378940F91E1
:1025C00008951F920F920FB60F9211242F933F93ED
:1025D0008F939F93AF93BF9380911D0490911E049E
:1025E000A0911F04B0912004309121040196A11DF7
:1025F000B11D232F2D5F2D3720F02D570196A11DE2
:10260000B11D2093210480931D0490931E04A09378
:102610001F04B09320048091190490911A04A09192
:102620001B04B0911C040196A11DB11D80931904D7
:1026300090931A04A0931B04B0931C04BF91AF9114
:102640009F918F913F912F910F900FBE0F901F90F0
:1026500018958FB7F89420911D0430911E04409175
:102660001F04509120048FBFB901CA0108959FB77C
:10267000F8942091190430911A0440911B04509150
:102680001C0486B5A89B06C08F3F21F02F5F3F4FEB
:102690004F4F5F4F9FBF542F432F322F2227280FBA
:1026A000311D411D511D82E0220F331F441F551F54
:1026B0008A95D1F7B901CA010895EF92FF920F935D
:1026C0001F93CF93DF937B018C010E943713EB01A3
:1026D0000EC00E9437136C1B7D0B685E7340C8F3FD
:1026E0000894E108F10801091109C851DC4FE1140F
:1026F000F1040105110569F7DF91CF911F910F9149
:10270000FF90EF900895789484B5826084BD84B57D
:10271000816084BD85B5826085BD85B5816085BDDC
:10272000EEE6F0E0808181608083E1E8F0E01082F5
:10273000808182608083808181608083E0E8F0E036
:10274000808181608083E1EBF0E080818460808320
:10275000E0EBF0E0808181608083EAE7F0E0808157
:1027600084608083808182608083808181608083B7
:102770008081806880831092C1000895982F8E30E8
:1027800008F09E509770809111018295880F880FF4
:10279000807C892B80937C0080917A008064809378
:1027A0007A0080917A0086FDFCCF209178004091DC
:1027B0007900942F80E030E0282B392BC90108954F
:1027C0001F93CF93DF93182FEB0161E00E94401419
:1027D000209709F44AC0CF3FD10509F449C0E12F41
:1027E000F0E0EB53FC4F84918330C1F0843028F447
:1027F000813051F08230B1F50CC0863019F187304C
:1028000049F1843079F514C084B5806884BDC7BDB2
:1028100033C084B5806284BDC8BD2EC08091800065
:10282000806880938000D0938900C093880024C082
:1028300080918000806280938000D0938B00C09351
:102840008A001AC08091B00080688093B000C09365
:10285000B30012C08091B00080628093B000C0933A
:10286000B4000AC0C038D1051CF4812F60E002C05A
:10287000812F61E00E94AC14DF91CF911F910895E8
:10288000CF93DF93482F50E0CA018F549C4FFC0137
:10289000349143565C4FFA018491882369F190E0AA
:1028A000880F991FFC01E158FC4FA591B491FC01E0
:1028B000E757FC4FC591D491662351F42FB7F89494
:1028C0008C91932F909589238C93888189230BC0B9
:1028D000623061F42FB7F8948C91932F90958923EF
:1028E0008C938881832B88832FBF06C09FB7F89471
:1028F0008C91832B8C939FBFDF91CF910895833070
:1029000071F0843028F48130A1F0823021F514C0B8
:102910008630B1F08730D1F08430E9F404C0809182
:1029200080008F7703C0809180008F7D809380002E
:10293000089584B58F7702C084B58F7D84BD0895D6
:102940008091B0008F778093B00008958091B0009F
:102950008F7D8093B0000895FF920F931F93F62E02
:10296000482F50E0CA018B539C4FFC012491CA01AF
:102970008F549C4FFC01149143565C4FFA01049113
:102980000023C9F0222319F0822F0E947F14E02F28
:10299000F0E0EE0FFF1FE757FC4FA591B4919FB7F2
:1029A000F894FF2021F48C911095812302C08C9122
:1029B000812B8C939FBF1F910F91FF9008950F93D0
:1029C0001F93482F50E0CA018B539C4FFC01249168
:1029D000CA018F549C4FFC01049143565C4FFA018D
:1029E0001491112319F420E030E015C0222319F0CE
:1029F000822F0E947F14812F90E0880F991F8D569F
:102A00009C4FFC01A591B4918C9120E030E0802393
:102A100011F021E030E0C9011F910F910895CF938B
:102A2000DF930E9483130E947406C0E0D0E00E94EE
:102A300062062097E1F30E940000F9CFCF92DF9267
:102A4000EF92FF920F931F93CF93DF937C016B0163
:102A50008A01C0E0D0E00FC0D6016D916D01D701B1
:102A6000ED91FC910190F081E02DC7010995C80F0F
:102A7000D91F015010400115110571F7CE01DF91EA
:102A8000CF911F910F91FF90EF90DF90CF9008951D
:102A9000EF92FF920F931F93CF93DF937C018B01F3
:102AA000C0E0D0E0F8010F5F1F4F6491662359F03A
:102AB000D701ED91FC910190F081E02DC7010995BE
:102AC000C80FD91FEFCFCE01DF91CF911F910F918A
:102AD000FF90EF900895DC01ED91FC910190F08161
:102AE000E02D09950895CF93DF93EC0161157105F1
:102AF00019F420E030E00FC0DB010D900020E9F771
:102B00001197A61BB70BE881F9810280F381E02DB4
:102B1000AD0109959C01C901DF91CF9108954F92B4
:102B20005F927F928F929F92AF92BF92CF92DF92ED
:102B3000EF92FF920F931F93DF93CF93CDB7DEB742
:102B4000A1970FB6F894DEBF0FBECDBF2C01742E37
:102B5000CB01223008F42AE019A231E2C32ED12C95
:102B6000CC0EDD1E822E9924AA24BB24672D752F3E
:102B7000A50194010E94491879018A01C801B70191
:102B8000A50194010E94F717472D461B0894C10820
:102B9000D1084A3014F4405D01C0495CF60140831D
:102BA000E114F1040105110521F07E2C5F2DC8010F
:102BB000DDCFC201B6010E947315A1960FB6F8943D
:102BC000DEBF0FBECDBFCF91DF911F910F91FF9060
:102BD000EF90DF90CF90BF90AF909F908F907F90BD
:102BE0005F904F900895CF92DF92EF92FF920F93F4
:102BF0001F93CF93DF93EC016A017B01211531050F
:102C000041F4E881F9810190F081E02D642F09956C
:102C10001FC02A303105D1F477FF17C0E881F98150
:102C20000190F081E02D6DE209958C014427552734
:102C3000BA014C195D096E097F09CE012AE00E9494
:102C40008F159801280F391F04C02AE00E948F15A4
:102C50009C01C901DF91CF911F910F91FF90EF90DF
:102C6000DF90CF900895EF92FF920F931F937B0117
:102C70009A010027F7FC0095102FB801A7010E94C8
:102C8000F3151F910F91FF90EF9008950E94731517
:102C900008952F923F924F925F926F927F928F9200
:102CA0009F92AF92BF92CF92DF92EF92FF920F93DB
:102CB0001F93DF93CF93CDB7DEB73B014C011901D2
:102CC0002A016D897E898F89988D6A197B098C0903
:102CD0009D09621A730A840A950AA40193010E944D
:102CE000F717E218F30804091509A80197010E94D3
:102CF0006B182A0D3B1D4C1D5D1DB901CA01CF91FA
:102D0000DF911F910F91FF90EF90DF90CF90BF90D8
:102D1000AF909F908F907F906F905F904F903F907B
:102D20002F900895EF92FF920F931F937B018C01D8
:102D3000611571058105910529F420E030E040E03E
:102D400050E00BC00E94DF18A80197010E946B1889
:102D5000AC01CB01DA019C01AD01B901CA011F919F
:102D60000F91FF90EF900895EF92FF920F931F93B2
:102D70007B018C01621773078407950764F4261B97
:102D8000370B480B590BCA01B9010E949216E60E87
:102D9000F71E081F191FB701C8011F910F91FF905F
:102DA000EF900895009729F0BC0180E090E00E9428
:102DB000E418089598D088F09F5790F0B92F99277C
:102DC000B751A0F0D1F0660F771F881F991F1AF036
:102DD000BA95C9F712C0B13081F09FD0B1E0089523
:102DE0009CC0672F782F8827B85F39F0B93FCCF3A4
:102DF000869577956795B395D9F73EF4909580952C
:102E0000709561957F4F8F4F9F4F0895E89409C04B
:102E100097FB3EF490958095709561957F4F8F4F0D
:102E20009F4F9923A9F0F92F96E9BB279395F69523
:102E3000879577956795B795F111F8CFFAF4BB0FA1
:102E400011F460FF1BC06F5F7F4F8F4F9F4F16C005
:102E5000882311F096E911C0772321F09EE8872F8F
:102E6000762F05C0662371F096E8862F70E060E04B
:102E70002AF09A95660F771F881FDAF7880F9695C4
:102E8000879597F9089597F99F6780E870E060E06B
:102E900008959FEF80EC089500240A9416161706F3
:102EA00018060906089500240A941216130614063B
:102EB00005060895092E0394000C11F4882352F09E
:102EC000BB0F40F4BF2B11F460FF04C06F5F7F4F56
:102ED0008F4F9F4F089557FD9058440F551F59F03D
:102EE0005F3F71F04795880F97FB991F61F09F3FF7
:102EF00079F087950895121613061406551FF2CF20
:102F00004695F1DF08C0161617061806991FF1CF6F
:102F100086957105610508940895E894BB27662796
:102F20007727CB0197F908950BD0C4CFB5DF28F0F0
:102F3000BADF18F0952309F0A6CFABCF1124EECF5E
:102F4000CADFA0F3959FD1F3950F50E0551F629F04
:102F5000F001729FBB27F00DB11D639FAA27F00DF2
:102F6000B11DAA1F649F6627B00DA11D661F829F19
:102F70002227B00DA11D621F739FB00DA11D621FFE
:102F8000839FA00D611D221F749F3327A00D611D1B
:102F9000231F849F600D211D822F762F6A2F1124FD
:102FA0009F5750408AF0E1F088234AF0EE0FFF1F50
:102FB000BB1F661F771F881F91505040A9F79E3F87
:102FC000510570F060CFAACF5F3FECF3983EDCF381
:102FD000869577956795B795F795E7959F5FC1F7C4
:102FE000FE2B880F911D9695879597F90895629FFE
:102FF000D001739FF001829FE00DF11D649FE00DF1
:10300000F11D929FF00D839FF00D749FF00D659F51
:10301000F00D9927729FB00DE11DF91F639FB00D50
:10302000E11DF91FBD01CF0111240895991B79E01D
:1030300004C0991F961708F0961B881F7A95C9F748
:1030400080950895AA1BBB1B51E107C0AA1FBB1F97
:10305000A617B70710F0A61BB70B881F991F5A9524
:10306000A9F780959095BC01CD01089597FB092E95
:1030700007260AD077FD04D0E5DF06D000201AF439
:10308000709561957F4F0895F6F7909581959F4FC4
:103090000895A1E21A2EAA1BBB1BFD010DC0AA1F99
:1030A000BB1FEE1FFF1FA217B307E407F50720F0B1
:1030B000A21BB30BE40BF50B661F771F881F991F2C
:1030C0001A9469F760957095809590959B01AC0175
:1030D000BD01CF01089597FB092E05260ED057FD9F
:1030E00004D0D7DF0AD0001C38F4509540953095B5
:1030F00021953F4F4F4F5F4F0895F6F7909580957C
:10310000709561957F4F8F4F9F4F0895EE0FFF1F72
:103110000590F491E02D0994A0E0B0E0E2E9F8E137
:103120000C94F518EC01A880B980CA80DB80A1144A
:10313000B104C104D10441F484E2A82E89EDB82E73
:103140008BE5C82E87E0D82EC601B5012DE133EFFF
:1031500041E050E00E946B1827EA31E440E050E083
:103160000E94F7177B018C01C601B5012DE133EFF9
:1031700041E050E00E946B18CA01B9012CEE34EF17
:103180004FEF5FEF0E94F7176E0D7F1D801F911F9D
:1031900097FF04C0615070408040904868837983F5
:1031A0008A839B839B01AC015F77B901CA01CDB7CC
:1031B000DEB7EAE00C9411190E948C1808958BE098
:1031C00091E00E948C18089560930B0170930C019C
:1031D00080930D0190930E0108952F923F924F928C
:1031E0005F926F927F928F929F92AF92BF92CF9297
:1031F000DF92EF92FF920F931F93CF93DF93CDB7A0
:10320000DEB7CA1BDB0B0FB6F894DEBF0FBECDBF17
:1032100009942A88398848885F846E847D848C84E8
:103220009B84AA84B984C884DF80EE80FD800C81F1
:103230001B81AA81B981CE0FD11D0FB6F894DEBFD4
:0C3240000FBECDBFED010895F894FFCF44
:10324C00434F4E47524154532121000100000001CD
:0A325C000101000000000B0C1E151C
:00000001FF
