:100000000C94E8010C9410020C9410020C94100251
:100010000C9410020C9410020C9410020C94100218
:100020000C9410020C9410020C9410020C94530EB9
:100030000C9410020C9410020C9410020C941002F8
:100040000C94BE0E0C9410020C9410020C9410022E
:100050000C9410020C9410020C9410020C941002D8
:100060000C9410020C94100203053F213F0A100A61
:100070001208120E1C0E0C1E0C141A14161F161E3B
:10008000131E1E1B1E1E1F1E3F213F3A2F3A173DF7
:10009000173F213F181F02040A041F0E04040E1FFD
:1000A0000A1F0A0E0E1F04110E2E252E2F2A2E2691
:1000B0002929021F02081F08150E04040E150E152B
:1000C000151B151B040604040C0400000000170097
:1000D0000300031F0A1F16371A1904130A153A00E2
:1000E0000300000E11110E000A040A040E04003071
:1000F000000404040010001804031F111F121F1035
:100100001D151711151F07041F17151D1F151D019C
:10011000011F1F151F17151F000A00003200040AD7
:10012000110A0A0A110A040115020E11171E051EF2
:100130001F150A0E110A1F110E1F15111F05010EA2
:10014000111D1F041F111F1108100F1F041B1F106A
:10015000101F061F1E040F0E110E1F09060E112E72
:100160001F051A121509011F011F101F0F180F1F5D
:100170000C1F1B041B031C03191513001F11030480
:1001800018111F000201022020200001020C121E83
:100190001F120C0C12120C121F0C1A14041E052430
:1001A0002A1E1F021C141D1020201D1F0814111FC1
:1001B000101E041E1E021C0C120C3E0A040C123EE1
:1001C0001E040214160A020F120E101E0E100E1E2E
:1001D000081E120C1226281E322A26041E21001F79
:1001E00000211E040102013F213F0A4E6F205344AB
:1001F0002063617264206F720A6E6F204C4F41441D
:1002000045522E4845580A0A153A45786974001D2A
:1002100020466C617368696E670A20206C6F6164A8
:1002200065722E2E2E0A0A444F4E275420545552E2
:100230004E204F464621004E4F20424154544552D5
:10024000590A0A504C454153450A5455524E204FC5
:10025000464600177361766500166261636B001590
:1002600074797065000A0A0A153A6F6B6179201675
:100270003A6564697400596F7520656E74657265BE
:10028000640A00540A03E181867F3E186D830F0FD4
:100290000E0183866033186DC3198F1803C38E60F7
:1002A00033186DE330CF1803C39E603630CDE36062
:1002B000CF3006C79E7E3E30CDB360CF300CC6F641
:1002C000603330D9B660CF33CFCCF66061B0DB1E7F
:1002D00060CF30D86CE6C061B0DB1E618F19986CBE
:1002E000C6C063B19B0E330F0FB078C6FF7E1F1BD5
:1002F000061E0F175344001613780016131400152A
:100300001020001520100000000500893008023878
:100310000249786814000045006801000005006883
:1003200001380100000500380168010000F6E8DB33
:10033000CFC3B8AEA49B928A827B746E68625C570E
:10034000524E4945413E3A3734312E2C2927252338
:10035000211F1D1C1A1917161514131211100F0E38
:100360000D0C0B0A090807066C0370030101F70363
:100370000101FF0300000000240027002A00000004
:100380000000250028002B000000000023002600AC
:100390002900040404040404040402020202020208
:1003A0000303030303030102040810204080010239
:1003B00004081020010204081020000000070002B9
:1003C000010000030406000000000000000012020B
:1003D00011241FBECFEFD8E0DEBFCDBF11E0A0E0FB
:1003E000B1E0E2ECF7E202C005900D92A031B10756
:1003F000D9F713E0A0E1B1E001C01D92A53AB10721
:10040000E1F713E0C0EDD3E004C02297FE010E94A3
:100410004313CE3CD107C9F70E94EC100C94DF13B4
:100420000C940000E0E1F1E086E8DF011D928A957E
:10043000E9F710926101109260018BE091E09093D6
:100440005F0180935E0110929701109296011092C5
:1004500099011092980110929B0110929A011092AA
:100460009D0110929C010895CF93DF93EC018AE1E6
:1004700091E061E041E00E94B803882321F08A8185
:100480009B81019717C08AE191E062E041E00E9400
:10049000B803882321F088819981019619C08AE1E7
:1004A00091E063E041E00E94B803882331F08A8143
:1004B0009B8101969B838A830DC08AE191E060E075
:1004C00041E00E94B803882329F08881998101972F
:1004D00099838883DF91CF91089586E991E00E9406
:1004E000340208950F93FC018EE591E06081428112
:1004F00021E001E00E94D0040F91089586E991E087
:100500000E94720208950E946D020E947E02089568
:1005100080910401882369F08AE090E0909397012C
:100520008093960190939901809398011092040111
:10053000089580E191E00E94E20A882311F00E9470
:10054000830208950F931F9300E111E0C8010E94F8
:100550009B0BC8010E94970A109228011F910F91CE
:100560000895882319F48CB5806202C08CB58F7D04
:100570008CBD08959CB5937F982B9CBD08952CB598
:10058000382F33702C7F322B3CBD2DB590E09595E4
:1005900087959595879581702E7F822B8DBD0895C7
:1005A0008AE061E00E9489108AE061E00E941D10EB
:1005B0008CB580618CBD8CB580648CBD8DE061E0B4
:1005C0000E941D108BE061E00E941D100895FC0147
:1005D00081E08083089585E070E00E94BD0F08955A
:1005E0006F927F928F929F92AF92BF92CF92DF9243
:1005F000EF92FF920F931F93CF93DF93EC018981CA
:100600009A818C0124E0000F111F2A95E1F7081B45
:10061000190B85E10E949B0FBC01600F711F84E0E4
:10062000769567958A95E1F77A836983888188232F
:1006300081F12E813F816217730710F4B90106C062
:10064000888599858617970708F4BC0100D000D0EB
:1006500080E090E040E050E0E884F98400E010E0C1
:10066000AD80BB24CC24DD246C807724882499249D
:10067000EDB7FEB761827282838294820E9450112C
:100680006B830F900F900F900F9085E070E00E94A9
:10069000BD0FDF91CF911F910F91FF90EF90DF90F1
:1006A000CF90BF90AF909F908F907F906F90089564
:1006B000FC018CE39FE09383828384E0818381E06B
:1006C00084870895CF93DF93EC018C8590E08F7140
:1006D0009070892B69F584E10E949B0FAA2797FDF2
:1006E000A095BA2FBC01CD010E94CF1126EE3FE3A9
:1006F0004EEC50E40E945B120E94A1119B01AC01E0
:100700007B836A836115710589F084E08983B9016F
:10071000FE0120E0848195816817790710F4298310
:100720000AC02F5F32962430A9F702C08FEF898369
:100730008C858F5F8C87DF91CF910895FC0188E0D5
:10074000808389E0818387E0828386E0838384E0FD
:10075000848382E0858381E18683089520E0FC0123
:10076000E60FF11D8781813009F421E0822F089581
:10077000E62FF0E0423040F420E0E80FF91F8781D7
:1007800081508E3F88F40FC0E80FF91F87818F3F9B
:1007900011F420E009C020E090E0642F70E00E9496
:1007A000DD12019709F421E0822F08950F931F9322
:1007B000CF93DF93EC0110E00FEF888162E00E949D
:1007C0001D1088810E94BC102F81892B19F42F5F86
:1007D0002F8307C0222349F02F3F11F41F8201C04D
:1007E0000F83888160E00E941D101F5F21961730E3
:1007F00021F7DF91CF911F910F910895FC01678F31
:1008000060A30895FC01678F40A30895FC0164353F
:10081000A8F547FD33C040338CF5878D942F95950F
:1008200095959595772767FD70954770882399F082
:10083000E4E59E02F0011124E60FF71FE256FE4F99
:1008400081E090E002C0880F991F4A95E2F720816D
:10085000282B20830895E4E59E02F0011124E60F81
:10086000F71FE256FE4F81E090E002C0880F991F0B
:100870004A95E2F780952081282320830895AF923E
:10088000BF92CF92DF92EF92FF920F931F93CF937D
:10089000DF93EC01162FF42EE22EAA24402F5527C9
:1008A00047FD50958F2D992787FD9095481B590B33
:1008B00057FF03C0509541955F4F2E2D332727FDDD
:1008C0003095812F992787FD9095281B390B37FF8D
:1008D00003C0309521953F4F2417350744F4AA24CF
:1008E000A3948F2DF12E182F802F0E2DE82EE116B8
:1008F00034F48E2DE12E182F802F0F2DF82EDE2CA4
:10090000D11A202F332727FD30958F2D992787FD6A
:100910009095281B390B37FF03C0309521953F4F29
:10092000B22EF0161CF0CC24CA9402C0CC24C3947E
:100930008D2DD7FC8F5F082F059511C0AA2021F0BF
:10094000CE016F2D412F03C0CE01612F4F2D0E948C
:1009500006040B1907FF02C0FC0C0D0D1F5FE1160A
:100960006CF7DF91CF911F910F91FF90EF90DF9087
:10097000CF90BF90AF9008950F93042F322F262F62
:100980002150230F0E943F040F9108950F93362F9B
:10099000042F0150020F232F0E943F040F9108954E
:1009A0009F92AF92BF92CF92DF92EF92FF920F93FE
:1009B0001F93CF93DF936C01B62E942EA02EC0E030
:1009C000D0E0E62EFF24E7FCF094022F112707FD6C
:1009D00010950E0D1F1D06C0C601492D2A2D0E941F
:1009E000C60421966B2D6C0FCE018E0D9F1D8017B6
:1009F000910794F3DF91CF911F910F91FF90EF90AA
:100A0000DF90CF90BF90AF909F9008952F923F922C
:100A10005F926F927F928F929F92AF92BF92CF928E
:100A2000DF92EF92FF920F931F93DF93CF9300D04B
:100A300000D000D0CDB7DEB79E838D83C62ED42ED6
:100A4000EE24E394E21A8EEF289F502C1124842E7A
:100A50008A94962E9A94A42EA394B62EB394F22E32
:100A6000662423E0722E10E0C801847090709A838F
:100A70008983F801E270F070FC83EB8398E0292E03
:100A8000312C202231220170107054C0E7FC04C0C8
:100A9000FA94F2E05F0EE50C639489819A81892BC8
:100AA00071F04F2D4D0D8D819E816B2D0E9406049E
:100AB0006F2D6C0D8D819E814A2D0E940604EB8165
:100AC000FC81EF2B71F04D2D4F198D819E816B2D87
:100AD0000E9406046F2D6C0D8D819E81482D0E9411
:100AE00006042114310471F06C2D6F198D819E81E3
:100AF0004A2D0E9406044F2D4D0D8D819E81692D3A
:100B00000E9406040115110571F06C2D6F198D817D
:100B10009E81482D0E9406044D2D4F198D819E8186
:100B2000692D0E940604E70CF2E07F0E8A949A94E5
:100B3000A394B3946F140CF4A9CF26960FB6F8942F
:100B4000DEBF0FBECDBFCF91DF911F910F91FF9000
:100B5000EF90DF90CF90BF90AF909F908F907F905D
:100B60006F905F903F902F9008954F925F926F9299
:100B70007F928F929F92AF92BF92CF92DF92EF922D
:100B8000FF920F931F93CF93DF93EC01A62E742E49
:100B90009E2DFF24F394F21A8EEF289F802C1124AF
:100BA000B42EBA9453E0C52ECE0CE22EDD2443E0E1
:100BB000942E10E031E0432E512C40225122692E18
:100BC00063940270107034C0F7FC04C0EA9482E0B1
:100BD000880EF80CD3944114510489F06D2D6A0DE0
:100BE000472D4E192E2D220F260DCE010E94C60430
:100BF0006E2D6A0DCE014B2D2C2D0E94C6040115C1
:100C0000110589F06A2D6D19472D4E192E2D220FD1
:100C1000260DCE010E94C6046A2D6E19CE014B2D01
:100C20002C2D0E94C604F90C82E0980EBA94C80ECE
:100C3000DE1454F2DF91CF911F910F91FF90EF904E
:100C4000DF90CF90BF90AF909F908F907F906F90EC
:100C50005F904F9008957F928F929F92AF92BF9234
:100C6000CF92DF92EF92FF920F931F936C01962E1B
:100C7000A42EF22E7E2C760E1EEFE19E102D112456
:100C8000812E820E672D282D0E94BC04B02EBA0C36
:100C9000BA94C601672D4B2D282D0E94BC04AE0CC2
:100CA000100FC601692D4A2D212F0E94C604F90C90
:100CB000FA94C6016F2D4A2D212F0E94C604C60149
:100CC000672D4A2D2E2D01E00E940605FE18C60153
:100CD0006F2D4A2D2E2D02E00E940605BE18C6017A
:100CE0006F2D4B2D2E2D04E00E940605C601672DA9
:100CF0004B2D2E2D08E00E9406051F910F91FF90AD
:100D0000EF90DF90CF90BF90AF909F908F907F90AB
:100D100008958F929F92AF92BF92CF92DF92EF92FF
:100D2000FF920F931F936C01162FA42E922EF02E7C
:100D3000BE2C8E2C860E2EEFE29EE02C11242E2D42
:100D4000290D682D0E94D004AB0CFA94FE0C1150B2
:100D5000190D1B19C601612F4A2D2B2D01E0EF2C17
:100D60000E94B505C601682D4A2D2B2D02E00E9478
:100D7000B5051F910F91FF90EF90DF90CF90BF903E
:100D8000AF909F908F900895DC01FB0184918F5F5D
:100D900014968C931497319684918F5F15968C934B
:100DA000159731965E96FC93EE935D9708953F926A
:100DB0004F925F926F927F928F929F92AF92BF926B
:100DC000CF92DF92EF92FF920F931F93CF93DF9317
:100DD000EC01862EA42E422F102F3F8C23E52617E0
:100DE0000CF4ABC03FE23A150CF4A7C0C02EDD24D2
:100DF0008C8190E001979C01C29EC001C39E900D22
:100E0000D29E900D1124262F332727FD3095820F77
:100E1000931F181619060CF090C08D8190E09C016C
:100E2000C29EC001C39E900DD29E900D11242A2D0A
:100E3000332727FD3095820F931F181619060CF0E3
:100E40007CC09924442E55246DC09C012150304013
:100E50004217530711F460E00EC0429EC001439E4A
:100E6000900D529E900D1124840F951FED8DFE8DD7
:100E7000E80FF91F64914C9DC0014D9D900D5C9D44
:100E8000900D1124682C680EBB24792C780C3FC07F
:100E9000E62EFF2460FF19C0113039F44B2D4A0DA6
:100EA000CE01672D0E9406042EC02C9DC0012D9DF1
:100EB000900D3C9D900D11244A2D480FCE01662DBA
:100EC000212F012F0E94D0041EC098A18F8D98174A
:100ED000D1F09F8F113039F44B2D4A0DCE01672D83
:100EE0000E9406040FC02C9DC0012D9D900D3C9DBD
:100EF000900D11244A2D480FCE01662D212F012F70
:100F00000E94D0043F8EF594E7946E2DB3942B2D60
:100F1000332727FD30958D8190E0281739070CF491
:100F2000B7CF9394492D552747FD50958C8190E07C
:100F3000481759070CF489CF3F8EDF91CF911F914D
:100F40000F91FF90EF90DF90CF90BF90AF909F9068
:100F50008F907F906F905F904F903F9008950F9388
:100F6000CF93DF93EC01262F6A3049F48D81988569
:100F7000899F802D11249A85980F9A8726C06D30FD
:100F800029F169854A8508850E94D7069C81688574
:100F9000969F402D11248985480F49878F8188238A
:100FA000A9F0552747FD5095699F9001112484E5CC
:100FB00090E0821B930B8417950744F49D81699FF1
:100FC000902D11248A85890F8A87198681E090E007
:100FD000DF91CF910F9108951F93CF93DF93EC0191
:100FE000162FF8948E8560E00E9489108F85181660
:100FF0001CF460E00E9489101EBD0DB407FEFDCFF9
:101000008EB58F8518161CF461E00E9489107894C3
:10101000DF91CF911F910895FF920F931F93CF936C
:10102000DF93EC01FF2400E010E06F2D6064CE013F
:101030000E94EC07CE0160E80E94EC078E8561E01B
:101040000E9489108F8518161CF460E00E94891098
:10105000F801E256FE4F90E080818EBD0DB407FE90
:10106000FDCF8EB59F5F31969435B1F78F851816F9
:101070001CF461E00E948910F3940C5A1F4F86E023
:10108000F81699F6CE0160E40E94EC07DF91CF914B
:101090001F910F91FF900895CF93DF93DC0188EFAC
:1010A00091E0EEE9F1E0EF019C011992215030400E
:1010B000E1F719961C9219971A961C92DF91CF911D
:1010C0000895EF920F93CF93DF93EC014D876C87D8
:1010D0002E87E88A0F8781E088878F8F18A28F83F9
:1010E000CE0168E670E00E94C4060E94D00281E052
:1010F0000E94B10285E00E94BF028CE00E94BA0209
:101100008D8561E00E941D108C8561E00E941D109C
:101110008E8561E00E941D10888918161CF461E01C
:101120000E941D108F8518161CF461E00E941D108E
:10113000888918166CF460E00E9489106AE070E0FB
:1011400080E090E00E943A0F888961E00E94891057
:10115000EC852E2F332727FD3095F901EE56FC4FF5
:10116000E491F0E0EE0FFF1FE258FC4F859194915F
:101170009C8B8B8B2A553C4FF90184918A8FED858E
:101180002E2F332727FD3095F901EE56FC4FE491C1
:10119000F0E0EE0FFF1FE258FC4F859194919A8B7F
:1011A000898B2A553C4FF9018491898FEF852E2F29
:1011B000332727FD3095F901EE56FC4FE491F0E01E
:1011C000EE0FFF1FE258FC4F859194919E8B8D8B03
:1011D0002A553C4FF90184918B8FEE852E2F3327B2
:1011E00027FD3095F901EE56FC4FE491F0E0EE0F4B
:1011F000FF1FE258FC4F85919491988F8F8B2A5551
:101200003C4FF90184918C8FCE0161E20E94EC0782
:10121000CE0164E10E94EC078B8587FF02C08FE757
:101220008B876B856068CE010E94EC07CE0160E27F
:101230000E94EC07CE016CE00E94EC07CE010E94F8
:101240000C08DF91CF910F91EF900895CF93DF932A
:10125000DC01E0E8FFE685919491ED01C75ADF4F8C
:10126000AD0141595F4F8150904C09F04EC0E6E905
:10127000FFE6E491E883E7E9FFE6E4911496EC9356
:101280001497E8E9FFE6E4911596EC931597E9E9E0
:10129000FFE68591949117969C938E931697EBE9B0
:1012A000FFE68591949119969C938E931897EDE99A
:1012B000FFE6E4919B96EC939B97EEE9FFE6E491C1
:1012C0009A96EC939A97EFE9FFE6E491EA01E883B6
:1012D000E0EAFFE6859194915D969C938E935C97EE
:1012E000E2EAFFE6859194915F969C938E935E97D8
:1012F000E4EAFFE68591949191969C938E93909762
:10130000E6EAFFE68591949132C08CE388831496D7
:101310001C9214972FEF15962C93159780E293E06B
:1013200017969C938E93169784ED93E019969C9351
:101330008E93189781E09B968C939B979A968C93AB
:101340009A97FA0120838CEA9DE05D969C938E9398
:101350005C978EED9DE05F969C938E935E9784E7FD
:101360009EE091969C938E9390978CE39FE093964A
:101370009C938E939297DF91CF9108950F931F9333
:10138000CF93DF93EC018C01025B1F4FC80161E03A
:1013900040E00E940204FE01E95AFF4FCE5ADF4F9F
:1013A00085E59881891B808326961882C855D04090
:1013B000698D613081F1613028F0888D653008F0E9
:1013C00043C03DC0CE0185960E946C0CCE0160E00A
:1013D0000E94EB02C8010E944C08CA5ADF4F81E00C
:1013E0008883C80167E372E00E942511C8010E944A
:1013F0000C0883B7817F846083BF83B7816083BF1C
:1014000083B7816083BF889583B78E7F83BF83B79F
:101410008E7F83BF1FC0C059DF4F88819981AA8109
:10142000BB818F709070A070B0700897A105B10556
:1014300018F4C80167E00CC0C80168E709C0882338
:1014400049F06B5FC80104C0882321F0C8016FE236
:101450000E944811DF91CF911F910F910895AF9293
:10146000BF92CF92DF92EF92FF920F931F93CF9391
:10147000DF93EC01CB57DF4F8881C558D0408823DC
:1014800009F44AC08C3010F010E002C01CE0181BB8
:10149000CA5ADF4F81E08883C655D0406EE4C62E1D
:1014A000D12CCC0EDD1EC60160E00E94FE0353E588
:1014B000A52EB12CAC0EBD1EF50100814DE2F42E1F
:1014C0004F2D401B410F0D5FC60160E024E533E066
:1014D000E32E0E948906C60161E00E94FE03F50129
:1014E0000081F01AF10E0D5FC60160E04F2D24E57A
:1014F0000E942B06C95ADF4F84E08993F501808151
:10150000181B115D1883AB9669917991C6010E94F1
:101510002511888181508883DF91CF911F910F9190
:10152000FF90EF90DF90CF90BF90AF9008954F92D3
:101530005F926F927F928F929F92AF92BF92CF9263
:10154000DF92EF92FF920F931F932C01FC01628CAC
:10155000738C60947094882499240E94140F5B010A
:101560006C010E94140F7B018C01F20141805280BA
:101570000E94140F460E571EA094B094C094D094AD
:10158000E094F09400951095C601B501A80197016B
:101590000E94BE12A40193010E94BE12460E571E65
:1015A000C2010E9499111F910F91FF90EF90DF905F
:1015B000CF90BF90AF909F908F907F906F905F90F3
:1015C0004F900895AF92BF92CF92DF92EF92FF9229
:1015D0000F931F93CF93DF93EC01EFE7AE2EB12C67
:1015E000A80EB91EF501E080F180028113810E94EE
:1015F000060FE61AF70A080B190B7EE7C72ED12C47
:10160000CC0EDD1EF601808190E0A0E0B0E08E15EA
:101610009F05A007B10708F081C08E0106581F4F33
:10162000F80180819181A281B3810097A105B10564
:1016300009F474C00E94060FF6012081620F711D2B
:10164000811D911DF5016083718382839383FE0167
:10165000E059FF4F80819181A281B3810196A11D44
:10166000B11D80839183A283B383F801108211821C
:10167000128213820E94140FCA58DF4F6883798345
:101680008A839B83C657D040CE010E94F002CE01D0
:101690000A960E94D603CE0148960E94620381E01A
:1016A00032C08E010B5D1F4FC8010E94BA0CC801E9
:1016B0000E94370DC8010E941A0ECE010E942F0A07
:1016C000CE010E94BE098E01025B1F4FC8010E941D
:1016D0000C08CC5ADF4F8881C455D040882319F4B8
:1016E000C8010E944C080E94140FC658DF4F68833F
:1016F00079838A839B83249728813981621B730BAA
:101700007A936A9380E0DF91CF911F910F91FF90C0
:10171000EF90DF90CF90BF90AF900895C658DF4F05
:1017200088819981AA81BB81CA57D0400097A105C1
:10173000B10541F7B6CFAF92BF92CF92DF92EF9251
:101740000F93CF93DF936C018EE790E0C80ED91E04
:1017500082E3F601808381E090E0A0E0B0E0B29304
:10176000A293929382936F0185EF9FEFC80ED91ECB
:101770008FEFF601808381E99FEFC80ED91EC60165
:101780000E942609C6010E94E702C6016FEF0E946F
:10179000EB024AE0A42EB12CAC0CBD1CC5010E948A
:1017A0009E03C5010E94D603C60148960E945803B5
:1017B000C601825B9F4F6DE04BE020E10FE03EE011
:1017C000E32E0E946108E601A596CE010E94840ED8
:1017D000C50165E00E94AE03882329F0CE0160E0D8
:1017E0000E94770E06C0CE0169E073E040E00E94DF
:1017F000700CDF91CF910F91EF90DF90CF90BF9061
:10180000AF9008950F93DC01002309F047C06230C8
:10181000A1F1633030F4662351F0613009F03EC02D
:1018200009C0633081F1643009F038C032C0569687
:101830004C9334C0842F90E0880F991F1F962D91F0
:101840003C915097280F391FF901859194919096FA
:101850009C938E935F97FC0145915491642F9196D0
:101860004C939197252F3327842F90E02817390721
:1018700008F4652F92966C9311C059964C93599722
:101880005A962C930BC05B964C935B975C962C936B
:1018900005C05D964C935D975E962C930F910895CD
:1018A000FC01662369F4178A158A14A213A2108E0C
:1018B00010929A0310929903109297031092B40019
:1018C0000895CF93DF93EC01662319F40E94500C26
:1018D0001982DF91CF91089560E00E94610C089514
:1018E0000F931F93CF93DF93EC018B01442371F48B
:1018F00060E00E94610C1E870D871B8A1A8A81E0B6
:10190000898389E08E8B198E1B8E1D8EDF91CF917E
:101910001F910F910895CF93DF93EC01662339F562
:101920008881882321F18981882309F5898590E0C0
:10193000880F991FEF81F885E80FF91F8591949121
:101940002FEF8F3F920711F4188211C09C8790E00F
:10195000880F991FEA85FB85E80FF91F659174913F
:10196000CE0140E00E94700C89858F5F8987DF91EE
:10197000CF91089560E00E948B0C08950F93CF9350
:10198000DF93EC01662309F06EC08981882309F496
:101990006AC08D89882309F066C0EA89FB89EE0F49
:1019A000FF1F4D855E85E40FF51F259134912115AC
:1019B000310509F040C08989813031F41B8A1A8AC7
:1019C000FA012591349137C019828881882379F0F2
:1019D000CE0160E00E948B0C8A899B89880F991F39
:1019E000ED85FE85E80FF91F2591349124C0CE01C5
:1019F00060E00E94500C37C0E6E036952795EA95E6
:101A0000E1F76F70422F4F7175E0369527957A9503
:101A1000E1F72051CE0100E00E94020C8A899B89E7
:101A200001969B8B8A8B880F991FED85FE85E80FA9
:101A3000F91F25913491B90176956795769567954B
:101A400020FDDACF862F8F738C8B3D8B1DA21CA2BD
:101A50001BA281E08F8B80939703188E8A899B89C4
:101A600001969B8B8A8BDF91CF910F91089560E057
:101A70000E94BE0C0895CF93DF93EC01662309F01A
:101A8000D6C08F89882309F4D2C08D89882321F498
:101A9000CE010E94500CCBC081508D8B8DA188232C
:101AA00009F03BC08BA19CA10196880F991FEF8D77
:101AB000F8A1E80FF91F85919491282F27702EA384
:101AC000AC0163E0569547956A95E1F79A01369522
:101AD0002795892F9927869586958FA32F738C81BB
:101AE000289F202D11242DA3417040939B038BA18F
:101AF0009CA101969CA38BA329A130E08217930798
:101B000060F08AA1882329F0281B31093CA32BA36C
:101B100004C0CE0160E00E94500C8DA181508DA3C5
:101B2000988D9F5F988F2FA18C89280F8C85280F07
:101B30002A836B8D662369F0892F992787FD9095FD
:101B400070E00E94F1128C8D869F802D1124820FEF
:101B50008A838A8190E0CB966BE370E00E94F11259
:101B60008A832E892B83698D662379F0888D772768
:101B700067FD7095992787FD90950E94F1128A8DD7
:101B8000869F802D1124820F8B836D8D662399F0A3
:101B9000888D992787FD909570E00E94F112CB0106
:101BA00062E070E00E94F1129E8D899F802D1124C9
:101BB0009B81890F8B838B818A300CF089E087FDB4
:101BC00080E08B838C898F3309F41B82F894EA813F
:101BD000F0E0E35DFC4FE491E09398032D8130E069
:101BE0008B81992787FD9095A901489F9001499F76
:101BF000300D589F300D112488A590E0A901489F11
:101C00009001499F300D589F300D11248EA19927C6
:101C100087FD9095AC01249FC001259F900D349FB6
:101C2000900D11248093990380939A037894DF9107
:101C3000CF91089560E00E943B0D08956091990353
:101C4000662381F1809196038F5F80939603909134
:101C50009803891738F130E080919703882309F4BD
:101C600031E0309397031092960380919B03882371
:101C7000A9F08091050123E4829FC0011124895BB2
:101C80008093050190E070E00E94DD1280939A033A
:101C900005C080919A038093B40008953323C9F757
:101CA00080E0F9CF08951F920F920FB60F92112482
:101CB0002F933F934F935F936F937F938F939F9354
:101CC000AF93BF93EF93FF930E941E0EFF91EF918E
:101CD000BF91AF919F918F917F916F915F914F9144
:101CE0003F912F910F900FBE0F901F901895FC0100
:101CF000862F668170E06F5F7F4F992787FD9095F3
:101D00000E94F112858308950F93FC0181E0848382
:101D100084E080A788E693E0908B8787CF0161E01D
:101D200040E020E000E00E94020C83E061E070E00F
:101D30000E94BD0FE1EBF0E08081887F81608083AD
:101D4000F89410928000E1E8F0E010821092850093
:101D50001092840088E191E090938900809388003C
:101D6000808188608083808181608083EFE6F0E0FD
:101D700080818260808378940F9108951F920F92E2
:101D80000FB60F9211242F933F938F939F93AF938E
:101D9000BF938091A0039091A103A091A203B09161
:101DA000A3033091A4030196A11DB11D232F2D5F24
:101DB0002D3720F02D570196A11DB11D2093A403AE
:101DC0008093A0039093A103A093A203B093A303D5
:101DD00080919C0390919D03A0919E03B0919F03DD
:101DE0000196A11DB11D80939C0390939D03A09328
:101DF0009E03B0939F03BF91AF919F918F913F91AD
:101E00002F910F900FBE0F901F9018958FB7F894D9
:101E10002091A0033091A1034091A2035091A3030C
:101E20008FBFB901CA0108959FB7F89420919C0310
:101E300030919D0340919E0350919F0386B5A89BCE
:101E400006C08F3F21F02F5F3F4F4F4F5F4F9FBF27
:101E5000542F432F322F2227280F311D411D511D92
:101E600082E0220F331F441F551F8A95D1F7B90115
:101E7000CA010895EF92FF920F931F93CF93DF93C0
:101E80007B018C010E94140FEB010EC00E94140F05
:101E90006C1B7D0B685E7340C8F30894E108F10881
:101EA00001091109C851DC4FE114F10401051105C4
:101EB00069F7DF91CF911F910F91FF90EF900895F7
:101EC000789484B5826084BD84B5816084BD85B515
:101ED000826085BD85B5816085BDEEE6F0E08081DC
:101EE00081608083E1E8F0E01082808182608083FD
:101EF000808181608083E0E8F0E080818160808380
:101F0000E1EBF0E0808184608083E0EBF0E08081B1
:101F100081608083EAE7F0E0808184608083808153
:101F200082608083808181608083808180688083FB
:101F30001092C1000895982F8E3008F09E5097702F
:101F4000809106018295880F880F807C892B809371
:101F50007C0080917A00806480937A0080917A007E
:101F600086FDFCCF2091780040917900942F80E08D
:101F700030E0282B392BC90108951F93CF93DF93AD
:101F8000182FEB0161E00E941D10209709F44AC050
:101F9000CF3FD10509F449C0E12FF0E0E654FC4FF2
:101FA00084918330C1F0843028F4813051F0823044
:101FB000B1F50CC0863019F1873049F1843079F5DC
:101FC00014C084B5806884BDC7BD33C084B5806249
:101FD00084BDC8BD2EC08091800080688093800041
:101FE000D0938900C093880024C0809180008062D3
:101FF00080938000D0938B00C0938A001AC0809198
:10200000B00080688093B000C093B30012C080918C
:10201000B00080628093B000C093B4000AC0C038A2
:10202000D1051CF4812F60E002C0812F61E00E9485
:102030008910DF91CF911F910895CF93DF93482F9F
:1020400050E0CA018A559C4FFC0134914E565C4FBA
:10205000FA018491882369F190E0880F991FFC01AF
:10206000EC58FC4FA591B491FC01E258FC4FC5918E
:10207000D491662351F42FB7F8948C91932F9095B7
:1020800089238C93888189230BC0623061F42FB738
:10209000F8948C91932F909589238C938881832B2E
:1020A00088832FBF06C09FB7F8948C91832B8C93A5
:1020B0009FBFDF91CF910895833071F0843028F471
:1020C0008130A1F0823021F514C08630B1F0873024
:1020D000D1F08430E9F404C0809180008F7703C090
:1020E000809180008F7D80938000089584B58F77E4
:1020F00002C084B58F7D84BD08958091B0008F7734
:102100008093B00008958091B0008F7D8093B000DF
:102110000895FF920F931F93F62E482F50E0CA01A7
:1021200086549C4FFC012491CA018A559C4FFC01A6
:1021300014914E565C4FFA0104910023C9F02223FA
:1021400019F0822F0E945C10E02FF0E0EE0FFF1FCD
:10215000E258FC4FA591B4919FB7F894FF2021F469
:102160008C911095812302C08C91812B8C939FBF01
:102170001F910F91FF9008950F931F93482F50E0E8
:10218000CA0186549C4FFC012491CA018A559C4F78
:10219000FC0104914E565C4FFA011491112319F47D
:1021A00020E030E015C0222319F0822F0E945C103D
:1021B000812F90E0880F991F88579C4FFC01A591B3
:1021C000B4918C9120E030E0802311F021E030E0E8
:1021D000C9011F910F910895CF93DF930E94600F63
:1021E0000E94A202C0E0D0E00E9488022097E1F3A2
:1021F0000E940000F9CFCF92DF92EF92FF920F93EF
:102200001F93CF93DF937C016B018A01C0E0D0E084
:102210000FC0D6016D916D01D701ED91FC91019038
:10222000F081E02DC7010995C80FD91F015010405A
:102230000115110571F7CE01DF91CF911F910F911B
:10224000FF90EF90DF90CF900895EF92FF920F9361
:102250001F93CF93DF937C018B01C0E0D0E0F801A6
:102260000F5F1F4F6491662359F0D701ED91FC91E8
:102270000190F081E02DC7010995C80FD91FEFCF5C
:10228000CE01DF91CF911F910F91FF90EF900895B4
:10229000DC01ED91FC910190F081E02D099508950C
:1022A0002F923F924F925F926F927F928F929F9266
:1022B000AF92BF92CF92DF92EF92FF920F931F9354
:1022C000DF93CF93CDB7DEB73B014C0119012A0153
:1022D0006D897E898F89988D6A197B098C099D0982
:1022E000621A730A840A950AA40193010E94BE121D
:1022F000E218F30804091509A80197010E942613A2
:102300002A0D3B1D4C1D5D1DB901CA01CF91DF9106
:102310001F910F91FF90EF90DF90CF90BF90AF9003
:102320009F908F907F906F905F904F903F902F90F5
:102330000895009729F0BC0180E090E00E949F136F
:10234000089598D088F09F5790F0B92F9927B751EA
:10235000A0F0D1F0660F771F881F991F1AF0BA9569
:10236000C9F712C0B13081F09FD0B1E008959CC090
:10237000672F782F8827B85F39F0B93FCCF386955F
:1023800077956795B395D9F73EF4909580957095BC
:1023900061957F4F8F4F9F4F0895E89409C097FB39
:1023A0003EF490958095709561957F4F8F4F9F4F2C
:1023B0009923A9F0F92F96E9BB279395F695879570
:1023C00077956795B795F111F8CFFAF4BB0F11F433
:1023D00060FF1BC06F5F7F4F8F4F9F4F16C08823DA
:1023E00011F096E911C0772321F09EE8872F762F10
:1023F00005C0662371F096E8862F70E060E02AF051
:102400009A95660F771F881FDAF7880F969587953C
:1024100097F9089597F99F6780E870E060E0089564
:102420009FEF80EC089500240A94161617061806EC
:102430000906089500240A941216130614060506C8
:102440000895092E0394000C11F4882352F0BB0F59
:1024500040F4BF2B11F460FF04C06F5F7F4F8F4FBC
:102460009F4F089557FD9058440F551F59F05F3FF7
:1024700071F04795880F97FB991F61F09F3F79F0A6
:1024800087950895121613061406551FF2CF469528
:10249000F1DF08C0161617061806991FF1CF8695AA
:1024A0007105610508940895E894BB27662777278E
:1024B000CB0197F908950BD0C4CFB5DF28F0BADF70
:1024C00018F0952309F0A6CFABCF1124EECFCADFC9
:1024D000A0F3959FD1F3950F50E0551F629FF00137
:1024E000729FBB27F00DB11D639FAA27F00DB11D90
:1024F000AA1F649F6627B00DA11D661F829F222719
:10250000B00DA11D621F739FB00DA11D621F839F9F
:10251000A00D611D221F749F3327A00D611D231F75
:10252000849F600D211D822F762F6A2F11249F57C3
:1025300050408AF0E1F088234AF0EE0FFF1FBB1FE6
:10254000661F771F881F91505040A9F79E3F510585
:1025500070F060CFAACF5F3FECF3983EDCF3869536
:1025600077956795B795F795E7959F5FC1F7FE2B30
:10257000880F911D9695879597F90895629FD001D0
:10258000739FF001829FE00DF11D649FE00DF11D2E
:10259000929FF00D839FF00D749FF00D659FF00DDD
:1025A0009927729FB00DE11DF91F639FB00DE11DCA
:1025B000F91FBD01CF0111240895AA1BBB1B51E1D6
:1025C00007C0AA1FBB1FA617B70710F0A61BB70BA3
:1025D000881F991F5A95A9F780959095BC01CD0148
:1025E000089597FB092E07260AD077FD04D0E5DF72
:1025F00006D000201AF4709561957F4F0895F6F784
:10260000909581959F4F0895A1E21A2EAA1BBB1B9E
:10261000FD010DC0AA1FBB1FEE1FFF1FA217B307AE
:10262000E407F50720F0A21BB30BE40BF50B661FC4
:10263000771F881F991F1A9469F760957095809588
:1026400090959B01AC01BD01CF01089597FB092E28
:1026500005260ED057FD04D0D7DF0AD0001C38F471
:1026600050954095309521953F4F4F4F5F4F0895BE
:10267000F6F790958095709561957F4F8F4F9F4F9E
:102680000895EE0FFF1F0590F491E02D0994A0E04E
:10269000B0E0EDE4F3E10C94B013EC01A880B98054
:1026A000CA80DB80A114B104C104D10441F484E2E6
:1026B000A82E89EDB82E8BE5C82E87E0D82EC6014E
:1026C000B5012DE133EF41E050E00E94261327EAE7
:1026D00031E440E050E00E94BE127B018C01C60153
:1026E000B5012DE133EF41E050E00E942613CA010D
:1026F000B9012CEE34EF4FEF5FEF0E94BE126E0D6A
:102700007F1D801F911F97FF04C061507040804063
:102710009048688379838A839B839B01AC015F77B0
:10272000B901CA01CDB7DEB7EAE00C94CC130E9420
:102730004713089580E091E00E9447130895609345
:1027400000017093010180930201909303010895A9
:102750002F923F924F925F926F927F928F929F92B1
:10276000AF92BF92CF92DF92EF92FF920F931F939F
:10277000CF93DF93CDB7DEB7CA1BDB0B0FB6F89450
:10278000DEBF0FBECDBF09942A88398848885F8490
:102790006E847D848C849B84AA84B984C884DF8001
:1027A000EE80FD800C811B81AA81B981CE0FD11DE5
:1027B0000FB6F894DEBF0FBECDBFED010895F894BB
:0227C000FFCF49
:1027C2000100000001010100000000AF07FB100042
:00000001FF
